{
    "contractName": "ETPToken",
    "abi": [
        {
            "inputs": [
                {
                    "internalType": "uint256",
                    "name": "_initialSupply",
                    "type": "uint256"
                }
            ],
            "stateMutability": "nonpayable",
            "type": "constructor"
        },
        {
            "anonymous": false,
            "inputs": [
                {
                    "indexed": true,
                    "internalType": "address",
                    "name": "_owner",
                    "type": "address"
                },
                {
                    "indexed": true,
                    "internalType": "address",
                    "name": "_spender",
                    "type": "address"
                },
                {
                    "indexed": false,
                    "internalType": "uint256",
                    "name": "_value",
                    "type": "uint256"
                }
            ],
            "name": "Approval",
            "type": "event"
        },
        {
            "anonymous": false,
            "inputs": [
                {
                    "indexed": true,
                    "internalType": "address",
                    "name": "_from",
                    "type": "address"
                },
                {
                    "indexed": true,
                    "internalType": "address",
                    "name": "_to",
                    "type": "address"
                },
                {
                    "indexed": false,
                    "internalType": "uint256",
                    "name": "_value",
                    "type": "uint256"
                }
            ],
            "name": "Transfer",
            "type": "event"
        },
        {
            "inputs": [
                {
                    "internalType": "address",
                    "name": "",
                    "type": "address"
                },
                {
                    "internalType": "address",
                    "name": "",
                    "type": "address"
                }
            ],
            "name": "allowance",
            "outputs": [
                {
                    "internalType": "uint256",
                    "name": "",
                    "type": "uint256"
                }
            ],
            "stateMutability": "view",
            "type": "function"
        },
        {
            "inputs": [
                {
                    "internalType": "address",
                    "name": "_spender",
                    "type": "address"
                },
                {
                    "internalType": "uint256",
                    "name": "_value",
                    "type": "uint256"
                }
            ],
            "name": "approve",
            "outputs": [
                {
                    "internalType": "bool",
                    "name": "succes",
                    "type": "bool"
                }
            ],
            "stateMutability": "nonpayable",
            "type": "function"
        },
        {
            "inputs": [
                {
                    "internalType": "address",
                    "name": "",
                    "type": "address"
                }
            ],
            "name": "balanceOf",
            "outputs": [
                {
                    "internalType": "uint256",
                    "name": "",
                    "type": "uint256"
                }
            ],
            "stateMutability": "view",
            "type": "function"
        },
        {
            "inputs": [],
            "name": "fee",
            "outputs": [
                {
                    "internalType": "uint256",
                    "name": "",
                    "type": "uint256"
                }
            ],
            "stateMutability": "view",
            "type": "function"
        },
        {
            "inputs": [],
            "name": "feePercentage",
            "outputs": [
                {
                    "internalType": "uint256",
                    "name": "",
                    "type": "uint256"
                }
            ],
            "stateMutability": "view",
            "type": "function"
        },
        {
            "inputs": [],
            "name": "maxFeeAmount",
            "outputs": [
                {
                    "internalType": "uint256",
                    "name": "",
                    "type": "uint256"
                }
            ],
            "stateMutability": "view",
            "type": "function"
        },
        {
            "inputs": [],
            "name": "name",
            "outputs": [
                {
                    "internalType": "string",
                    "name": "",
                    "type": "string"
                }
            ],
            "stateMutability": "view",
            "type": "function"
        },
        {
            "inputs": [],
            "name": "symbol",
            "outputs": [
                {
                    "internalType": "string",
                    "name": "",
                    "type": "string"
                }
            ],
            "stateMutability": "view",
            "type": "function"
        },
        {
            "inputs": [],
            "name": "totalSupply",
            "outputs": [
                {
                    "internalType": "uint256",
                    "name": "",
                    "type": "uint256"
                }
            ],
            "stateMutability": "view",
            "type": "function"
        },
        {
            "inputs": [
                {
                    "internalType": "address",
                    "name": "_to",
                    "type": "address"
                },
                {
                    "internalType": "uint256",
                    "name": "_value",
                    "type": "uint256"
                }
            ],
            "name": "transfer",
            "outputs": [
                {
                    "internalType": "bool",
                    "name": "succes",
                    "type": "bool"
                }
            ],
            "stateMutability": "nonpayable",
            "type": "function"
        },
        {
            "inputs": [
                {
                    "internalType": "address",
                    "name": "_from",
                    "type": "address"
                },
                {
                    "internalType": "address",
                    "name": "_to",
                    "type": "address"
                },
                {
                    "internalType": "uint256",
                    "name": "_value",
                    "type": "uint256"
                }
            ],
            "name": "transferFrom",
            "outputs": [
                {
                    "internalType": "bool",
                    "name": "succes",
                    "type": "bool"
                }
            ],
            "stateMutability": "nonpayable",
            "type": "function"
        },
        {
            "inputs": [],
            "name": "version",
            "outputs": [
                {
                    "internalType": "string",
                    "name": "",
                    "type": "string"
                }
            ],
            "stateMutability": "view",
            "type": "function"
        }
    ],
    "bytecode": "60c0604052601260808190527145647563617465205468652050656f706c6560701b60a090815261003391600091906100e2565b506040805180820190915260038082526204554560ec1b602090920191825261005e916001916100e2565b506040805180820190915260088082526704554502076312e360c41b602090920191825261008e916002916100e2565b5060056003556305f5e100600455614e206006553480156100ae57600080fd5b506040516109333803806109338339810160408190526100cd9161017b565b336000908152600760205260409020556101cf565b8280546100ee90610194565b90600052602060002090601f0160209004810192826101105760008555610156565b82601f1061012957805160ff1916838001178555610156565b82800160010185558215610156579182015b8281111561015657825182559160200191906001019061013b565b50610162929150610166565b5090565b5b808211156101625760008155600101610167565b60006020828403121561018d57600080fd5b5051919050565b600181811c908216806101a857607f821691505b602082108114156101c957634e487b7160e01b600052602260045260246000fd5b50919050565b610755806101de6000396000f3fe608060405234801561001057600080fd5b50600436106100b45760003560e01c806370a082311161007157806370a082311461013557806395d89b4114610155578063a001ecdd1461015d578063a9059cbb14610166578063dd62ed3e14610179578063ddca3f43146101a457600080fd5b806306fdde03146100b9578063095ea7b3146100d757806318160ddd146100fa57806323b872dd146101115780633db1065a1461012457806354fd4d501461012d575b600080fd5b6100c16101ad565b6040516100ce9190610609565b60405180910390f35b6100ea6100e53660046105df565b61023b565b60405190151581526020016100ce565b61010360045481565b6040519081526020016100ce565b6100ea61011f3660046105a3565b6102a7565b61010360065481565b6100c16103e7565b61010361014336600461054e565b60076020526000908152604090205481565b6100c16103f4565b61010360035481565b6100ea6101743660046105df565b610401565b610103610187366004610570565b600860209081526000928352604080842090915290825290205481565b61010360055481565b600080546101ba906106ce565b80601f01602080910402602001604051908101604052809291908181526020018280546101e6906106ce565b80156102335780601f1061020857610100808354040283529160200191610233565b820191906000526020600020905b81548152906001019060200180831161021657829003601f168201915b505050505081565b3360008181526008602090815260408083206001600160a01b038716808552925280832085905551919290917f8c5be1e5ebec7d5bd14f71427d1e84f3dd0314c0f7b2291e5b200ac8c7c3b925906102969086815260200190565b60405180910390a350600192915050565b6001600160a01b0383166000908152600760205260408120548211156102cc57600080fd5b6001600160a01b03841660009081526008602090815260408083203384529091529020548211156102fc57600080fd5b6001600160a01b038416600090815260076020526040812080548492906103249084906106b7565b90915550506001600160a01b0383166000908152600760205260408120805484929061035190849061065e565b90915550506001600160a01b0384166000908152600860209081526040808320338452909152812080548492906103899084906106b7565b92505081905550826001600160a01b0316846001600160a01b03167fddf252ad1be2c89b69c2b068fc378daa952ba7f163c4a11628f55a4df523b3ef846040516103d591815260200190565b60405180910390a35060019392505050565b600280546101ba906106ce565b600180546101ba906106ce565b3360009081526007602052604081205482111561041d57600080fd5b336000908152600760205260408120805484929061043c9084906106b7565b909155505060035461044f606484610676565b6104599190610698565b600555600654600554116104b657600554604051908152730634ca4163a9cfb52a12e8abb94ae828e698a4989033907fddf252ad1be2c89b69c2b068fc378daa952ba7f163c4a11628f55a4df523b3ef9060200160405180910390a35b6005546104c390836106b7565b6001600160a01b0384166000908152600760205260408120805492945084929091906104f090849061065e565b90915550506040518281526001600160a01b0384169033907fddf252ad1be2c89b69c2b068fc378daa952ba7f163c4a11628f55a4df523b3ef90602001610296565b80356001600160a01b038116811461054957600080fd5b919050565b60006020828403121561056057600080fd5b61056982610532565b9392505050565b6000806040838503121561058357600080fd5b61058c83610532565b915061059a60208401610532565b90509250929050565b6000806000606084860312156105b857600080fd5b6105c184610532565b92506105cf60208501610532565b9150604084013590509250925092565b600080604083850312156105f257600080fd5b6105fb83610532565b946020939093013593505050565b600060208083528351808285015260005b818110156106365785810183015185820160400152820161061a565b81811115610648576000604083870101525b50601f01601f1916929092016040019392505050565b6000821982111561067157610671610709565b500190565b60008261069357634e487b7160e01b600052601260045260246000fd5b500490565b60008160001904831182151516156106b2576106b2610709565b500290565b6000828210156106c9576106c9610709565b500390565b600181811c908216806106e257607f821691505b6020821081141561070357634e487b7160e01b600052602260045260246000fd5b50919050565b634e487b7160e01b600052601160045260246000fdfea2646970667358221220cbb05f1b3d76f2221b198d3809c5ade2350a054348f4666c5492293c06e3f5de64736f6c63430008060033",
    "sourcePath": "c:/Users/Konst/ETP/contracts/ETPToken.sol",
    "compiler": {
        "name": "solc",
        "version": "0.8.6+commit.11564f7e"
    },
    "functionHashes": {
        "allowance(address,address)": "dd62ed3e",
        "approve(address,uint256)": "095ea7b3",
        "balanceOf(address)": "70a08231",
        "fee()": "ddca3f43",
        "feePercentage()": "a001ecdd",
        "maxFeeAmount()": "3db1065a",
        "name()": "06fdde03",
        "symbol()": "95d89b41",
        "totalSupply()": "18160ddd",
        "transfer(address,uint256)": "a9059cbb",
        "transferFrom(address,address,uint256)": "23b872dd",
        "version()": "54fd4d50"
    },
    "gasEstimates": {
        "creation": {
            "codeDepositCost": "375400",
            "executionCost": "infinite",
            "totalCost": "infinite"
        },
        "external": {
            "allowance(address,address)": "infinite",
            "approve(address,uint256)": "24522",
            "balanceOf(address)": "2519",
            "fee()": "2405",
            "feePercentage()": "2339",
            "maxFeeAmount()": "2384",
            "name()": "infinite",
            "symbol()": "infinite",
            "totalSupply()": "2340",
            "transfer(address,uint256)": "infinite",
            "transferFrom(address,address,uint256)": "infinite",
            "version()": "infinite"
        }
    }
}