{
    "contractName": "ETPTokenSale",
    "abi": [
        {
            "inputs": [
                {
                    "internalType": "contract ETPToken",
                    "name": "_tokenContract",
                    "type": "address"
                },
                {
                    "internalType": "uint256",
                    "name": "_tokenPrice",
                    "type": "uint256"
                }
            ],
            "stateMutability": "nonpayable",
            "type": "constructor"
        },
        {
            "anonymous": false,
            "inputs": [
                {
                    "indexed": false,
                    "internalType": "address",
                    "name": "_buyer",
                    "type": "address"
                },
                {
                    "indexed": false,
                    "internalType": "uint256",
                    "name": "_amount",
                    "type": "uint256"
                }
            ],
            "name": "Sell",
            "type": "event"
        },
        {
            "inputs": [
                {
                    "internalType": "uint256",
                    "name": "_numberOfETP",
                    "type": "uint256"
                }
            ],
            "name": "buyETP",
            "outputs": [],
            "stateMutability": "payable",
            "type": "function"
        },
        {
            "inputs": [],
            "name": "endSale",
            "outputs": [],
            "stateMutability": "nonpayable",
            "type": "function"
        },
        {
            "inputs": [],
            "name": "tokenContract",
            "outputs": [
                {
                    "internalType": "contract ETPToken",
                    "name": "",
                    "type": "address"
                }
            ],
            "stateMutability": "view",
            "type": "function"
        },
        {
            "inputs": [],
            "name": "tokenPrice",
            "outputs": [
                {
                    "internalType": "uint256",
                    "name": "",
                    "type": "uint256"
                }
            ],
            "stateMutability": "view",
            "type": "function"
        },
        {
            "inputs": [],
            "name": "tokenSold",
            "outputs": [
                {
                    "internalType": "uint256",
                    "name": "",
                    "type": "uint256"
                }
            ],
            "stateMutability": "view",
            "type": "function"
        }
    ],
    "bytecode": "608060405234801561001057600080fd5b5060405161058338038061058383398101604081905261002f91610066565b60008054336001600160a01b031991821617909155600180549091166001600160a01b0393909316929092179091556002556100a0565b6000806040838503121561007957600080fd5b82516001600160a01b038116811461009057600080fd5b6020939093015192949293505050565b6104d4806100af6000396000f3fe60806040526004361061004a5760003560e01c8063380d831b1461004f578063519ee19e1461006657806355a373d61461008f5780637ff9b596146100c75780639e77ead1146100dd575b600080fd5b34801561005b57600080fd5b506100646100f0565b005b34801561007257600080fd5b5061007c60035481565b6040519081526020015b60405180910390f35b34801561009b57600080fd5b506001546100af906001600160a01b031681565b6040516001600160a01b039091168152602001610086565b3480156100d357600080fd5b5061007c60025481565b6100646100eb3660046103fd565b610224565b6000546001600160a01b0316331461010757600080fd5b6001546000546040516370a0823160e01b81523060048201526001600160a01b039283169263a9059cbb92169083906370a082319060240160206040518083038186803b15801561015757600080fd5b505afa15801561016b573d6000803e3d6000fd5b505050506040513d601f19601f8201168201806040525081019061018f9190610416565b6040516001600160e01b031960e085901b1681526001600160a01b0390921660048301526024820152604401602060405180830381600087803b1580156101d557600080fd5b505af11580156101e9573d6000803e3d6000fd5b505050506040513d601f19601f8201168201806040525081019061020d91906103d4565b61021657600080fd5b6000546001600160a01b0316ff5b610230816002546103a1565b341461023b57600080fd5b6001546040516370a0823160e01b815230600482015282916001600160a01b0316906370a082319060240160206040518083038186803b15801561027e57600080fd5b505afa158015610292573d6000803e3d6000fd5b505050506040513d601f19601f820116820180604052508101906102b69190610416565b10156102c157600080fd5b60015460405163a9059cbb60e01b8152336004820152602481018390526001600160a01b039091169063a9059cbb90604401602060405180830381600087803b15801561030d57600080fd5b505af1158015610321573d6000803e3d6000fd5b505050506040513d601f19601f8201168201806040525081019061034591906103d4565b61034e57600080fd5b8060036000828254610360919061042f565b909155505060408051338152602081018390527f5e5e995ce3133561afceaa51a9a154d5db228cd7525d34df5185582c18d3df09910160405180910390a150565b60008115806103c5575082826103b78183610469565b92506103c39083610447565b145b6103ce57600080fd5b92915050565b6000602082840312156103e657600080fd5b815180151581146103f657600080fd5b9392505050565b60006020828403121561040f57600080fd5b5035919050565b60006020828403121561042857600080fd5b5051919050565b6000821982111561044257610442610488565b500190565b60008261046457634e487b7160e01b600052601260045260246000fd5b500490565b600081600019048311821515161561048357610483610488565b500290565b634e487b7160e01b600052601160045260246000fdfea264697066735822122051eb23073886f96e363ebc5b3c6a3a82e31801cbfd4bc4c981e6dcca1738e8cd64736f6c63430008060033",
    "sourcePath": "c:/Users/Konst/ETP/contracts/ETPTokenSale.sol",
    "compiler": {
        "name": "solc",
        "version": "0.8.6+commit.11564f7e"
    },
    "functionHashes": {
        "buyETP(uint256)": "9e77ead1",
        "endSale()": "380d831b",
        "tokenContract()": "55a373d6",
        "tokenPrice()": "7ff9b596",
        "tokenSold()": "519ee19e"
    },
    "gasEstimates": {
        "creation": {
            "codeDepositCost": "247200",
            "executionCost": "infinite",
            "totalCost": "infinite"
        },
        "external": {
            "buyETP(uint256)": "infinite",
            "endSale()": "infinite",
            "tokenContract()": "2359",
            "tokenPrice()": "2328",
            "tokenSold()": "2284"
        },
        "internal": {
            "multiply(uint256,uint256)": "227"
        }
    }
}